S01A0000436F6D6D756E69636174696F6E5F554152542E7372656319
S11300000C942A000C9434000C9434000C943400A6
S11300100C9434000C9434000C9434000C9434008C
S11300200C9434000C9434000C9434000C9434007C
S11300300C9434000C9434000C9434000C9434006C
S11300400C9434000C9434000C9434000C9434005C
S11300500C94340011241FBECFE5D8E0DEBFCDBF21
S11300600E9448000C9450000C94000010BC8CE0DA
S113007089B982E08BB984E880BD88E18AB90895A2
S11300805D9BFECF8CB908955F9BFECF8CB1089524
S11300900E94360081E60E9440000E944400FBCF8B
S10700A0F894FFCFFE
S9030000FC
