S01B0000554152545F5265757361626C654472697665722E73726563CF
S11300000C9431000C9443000C9443000C94430072
S11300100C9443000C9443000C9443000C94430050
S11300200C9443000C9443000C9443000C94430040
S11300300C9443000C9445000C9497000C946E00AF
S11300400C9443000C9443000C9443000C94430020
S11300500C94430063016501670169016B016D0143
S11300606F0111241FBECFE5D8E0DEBFCDBF20E075
S1130070A0E6B0E001C01D92A237B207E1F70E94EA
S1130080E3010C94F7030C9400001F920F920FB637
S11300900F9211242F933F934F935F936F937F930A
S11300A08F939F93AF93BF93EF93FF93E0916C0073
S11300B0F0916D00309709F00995FF91EF91BF9190
S11300C0AF919F918F917F916F915F914F913F91EC
S11300D02F910F900FBE0F901F9018951F920F92A3
S11300E00FB60F9211242F933F934F935F936F9307
S11300F07F938F939F93AF93BF93EF93FF93E0917D
S11301006E00F0916F00309709F00995FF91EF911F
S1130110BF91AF919F918F917F916F915F914F911B
S11301203F912F910F900FBE0F901F9018951F9223
S11301300F920FB60F9211242F933F934F935F9317
S11301406F937F938F939F93AF93BF93EF93FF939B
S1130150E0917000F0917100309709F00995FF91DA
S1130160EF91BF91AF919F918F917F916F915F912B
S11301704F913F912F910F900FBE0F901F901895A4
S1130180CF92DF92EF92FF921F93CF93DF938091F0
S11301906000823051F0833031F0813011F0C0E0E2
S11301A005C0C8E003C0C8E101C0C0E1809161009E
S11301B0813041F120F0823009F447C06BC0609176
S11301C06700709168008091690090916A000E94B4
S11301D0000320E030E040E851E40E948E039B01DC
S11301E0AC0160E074E284E799E40E946C0220E0D0
S11301F030E040E05FE30E9407026B017C01D0E045
S113020010E050C0609167007091680080916900AF
S113021090916A000E94000320E030E040E051E445
S11302200E948E039B01AC0160E074E284E799E4D0
S11302300E946C0220E030E040E05FE30E9407028D
S11302406B017C01D0E012E02DC0609167007091D9
S113025068008091690090916A000E9400039B01EC
S1130260AC010E9408029B01AC0160E074E284E7E7
S113027099E40E946C0220E030E040E05FE30E94D9
S113028007026B017C0180916600813049F0D0E463
S113029010E008C0C12CD12C7601D0E010E002C0DF
S11302A0D1E410E080916200813009F41160809102
S11302B0630090E0FC013197E730F10588F4E65DD6
S11302C0FF4F0C94F103C0680BC0C06409C0C06246
S11302D007C0C06C05C0C06A03C0C06601C0C06E60
S11302E080916400823059F018F4813031F00DC0EF
S11302F0833039F0843039F008C0D26006C0D4604D
S113030004C0D66002C0D660C460809165008330AA
S113031079F028F4813041F0823041F00EC084300D
S113032049F0853049F009C0D86007C0D06205C0E3
S1130330D86203C0D06301C0D863C701B6010E946C
S1130340D40270BDC701B6010E94D40269B91BB9B9
S1130350D0BDCAB9DF91CF911F91FF90EF90DF908C
S1130360CF9008955D9BFECF20916400243041F42A
S11303704AB14E7F9C0122273170242F232B2AB9A6
S11303808CB908955F9BFECF8BB18C7179F05C9B27
S113039004C083E080936B0009C05B9B04C082E0CF
S11303A080936B0003C081E080936B0080916400B4
S11303B0843021F48AB180E090E002C080E090E0D3
S11303C02CB1822B089580E895E2A0E0B0E0809300
S11303D0670090936800A0936900B0936A0083E07B
S11303E08093600081E0809361001092620010921B
S11303F0630092E090936400809365000E94C000C3
S113040083E490E00E94B2010E94C201FACF5058E6
S1130410BB27AA270ED048C139D130F03ED120F0F5
S113042031F49F3F11F41EF42EC10EF4E095E7FB66
S113043024C1E92F4AD180F3BA17620773078407EE
S1130440950718F071F49EF562C10EF4E0950B2E39
S1130450BA2FA02D0B01B90190010C01CA01A00112
S11304601124FF27591B99F0593F50F4503E68F16D
S11304701A16F040A22F232F342F4427585FF3CFAE
S1130480469537952795A795F0405395C9F77EF47F
S11304901F16BA0B620B730B840BBAF09150A1F0C8
S11304A0FF0FBB1F661F771F881FC2F70EC0BA0F4E
S11304B0621F731F841F48F4879577956795B795D6
S11304C0F7959E3F08F0B3CF9395880F08F09927CE
S11304D0EE0F9795879508950CD0E6C0DED040F0D6
S11304E0D5D030F021F45F3F19F0C7C0511110C1CD
S11304F0CAC0EBD098F39923C9F35523B1F3951BE4
S1130500550BBB27AA2762177307840738F09F5F30
S11305105F4F220F331F441FAA1FA9F333D00E2E9F
S11305203AF0E0E830D091505040E695001CCAF70C
S113053029D0FE2F27D0660F771F881FBB1F2617D1
S113054037074807AB07B0E809F0BB0B802DBF01A4
S1130550FF2793585F4F2AF09E3F510568F08DC0E6
S1130560D7C05F3FECF3983EDCF3869577956795AB
S1130570B795F7959F5FC9F7880F911D9695879555
S113058097F90895E1E0660F771F881FBB1F621774
S113059073078407BA0720F0621B730B840BBA0B32
S11305A0EE1F88F7E095089598D088F09F5790F053
S11305B0B92F9927B751A0F0D1F0660F771F881F84
S11305C0991F1AF0BA95C9F712C0B13081F09FD0C3
S11305D0B1E008959CC0672F782F8827B85F39F061
S11305E0B93FCCF3869577956795B395D9F73EF4E3
S11305F090958095709561957F4F8F4F9F4F08958B
S1130600E89409C097FB3EF49095809570956195A8
S11306107F4F8F4F9F4F9923A9F0F92F96E9BB275E
S11306209395F695879577956795B795F111F8CFDA
S1130630FAF4BB0F11F460FF1BC06F5F7F4F8F4F45
S11306409F4F16C0882311F096E911C0772321F03B
S11306509EE8872F762F05C0662371F096E8862FD3
S113066070E060E02AF09A95660F771F881FDAF72A
S1130670880F9695879597F9089597F99F6780E86D
S113068070E060E008959FEF80EC089500240A94E0
S11306901616170618060906089500240A94121659
S11306A01306140605060895092E0394000C11F48C
S11306B0882352F0BB0F40F4BF2B11F460FF04C039
S11306C06F5F7F4F8F4F9F4F089557FD9058440F92
S11306D0551F59F05F3F71F04795880F97FB991F9D
S11306E061F09F3F79F0879508951216130614065A
S11306F0551FF2CF4695F1DF08C0161617061806E7
S1130700991FF1CF86957105610508940895E894C1
S1130710BB2766277727CB0197F908950BD0C4CF61
S1130720B5DF28F0BADF18F0952309F0A6CFABCFD8
S11307301124EECFCADFA0F3959FD1F3950F50E0BB
S1130740551F629FF001729FBB27F00DB11D639F7F
S1130750AA27F00DB11DAA1F649F6627B00DA11D25
S1130760661F829F2227B00DA11D621F739FB00DCB
S1130770A11D621F839FA00D611D221F749F33273B
S1130780A00D611D231F849F600D211D822F762FD4
S11307906A2F11249F5750408AF0E1F088234AF0D1
S11307A0EE0FFF1FBB1F661F771F881F915050401D
S11307B0A9F79E3F510570F060CFAACF5F3FECF3DD
S11307C0983EDCF3869577956795B795F795E79509
S11307D09F5FC1F7FE2B880F911D9695879597F91A
S11307E00895EE0FFF1F0590F491E02D0994F894FD
S10507F0FFCF35
S9030000FC
