:100000000C9431000C944E000C944E000C944E0055
:100010000C944E000C944E000C944E000C944E0028
:100020000C944E000C944E000C944E000C944E0018
:100030000C944E000C9450000C94A2000C94790087
:100040000C944E000C944E000C944E000C944E00F8
:100050000C944E00EB02E702E302DF02D702DB0260
:10006000EB0111241FBECFE5D8E0DEBFCDBF10E00D
:10007000A0E6B0E0E8E4FAE002C005900D92A436F4
:10008000B107D9F720E0A4E6B0E001C01D92A63781
:10009000B207E1F70E940E030C9422050C940000B5
:1000A0001F920F920FB60F9211242F933F934F93ED
:1000B0005F936F937F938F939F93AF93BF93EF93D0
:1000C000FF93E0917000F0917100309709F009956D
:1000D000FF91EF91BF91AF919F918F917F916F9120
:1000E0005F914F913F912F910F900FBE0F901F90F6
:1000F00018951F920F920FB60F9211242F933F93D2
:100100004F935F936F937F938F939F93AF93BF931F
:10011000EF93FF93E0917200F0917300309709F034
:100120000995FF91EF91BF91AF919F918F917F9131
:100130006F915F914F913F912F910F900FBE0F9054
:100140001F9018951F920F920FB60F9211242F93A4
:100150003F934F935F936F937F938F939F93AF934F
:10016000BF93EF93FF93E0917400F0917500309787
:1001700009F00995FF91EF91BF91AF919F918F91F8
:100180007F916F915F914F913F912F910F900FBE93
:100190000F901F9018952F923F924F925F926F92FF
:1001A0007F928F929F92AF92BF92CF92DF92EF9207
:1001B000FF920F931F93CF93DF9300D000D000D016
:1001C000CDB7DEB7E0916400E150E33008F050C0F5
:1001D000F0E0E05AFF4F80818B8380916500813091
:1001E00009F44CC0813008F44CC1823009F49AC043
:1001F00008E380E3382E98E2292EB0E2BA83E8E0E3
:10020000E9832AE3422E32E3532E4AE2642E52E27D
:10021000752E6AE0862E7CE3A72EE4E3BE2EFCE278
:10022000CF2EA4E2DA2EBCE0EB2E1EE3F6E3FD8334
:100230008EE28C8376E25EE046E084E0F82E92E087
:10024000992E91E060E01E8220E030E0809166000F
:10025000813009F4392F8091670090E00197873051
:10026000910508F0BBC0865D9F4FFC010C941C05F6
:100270001B8280916500813009F0B4CF60916B00E2
:1002800070916C0080916D0090916E000E942B0423
:1002900020E030E040E051E40E94B9049B01AC0151
:1002A00060E074E284E799E40E94970320E030E084
:1002B00040E05FE30E9432036B017C010E94FF0378
:1002C0007E83C701B6010E94FF0308E3A0E33A2E34
:1002D000B8E22B2E80E28A83A8E0A9831AE3412E9C
:1002E00082E3582E9AE2692E22E2722E3AE0832EA1
:1002F0004CE3A42E54E3B52E7CE2C72EE4E2DE2EBE
:10030000FCE0EF2E1EE3B6E3BD83EEE2EC8376E283
:100310005EE046E0A4E0FA2EB2E09B2E93E020E0FF
:1003200032E094CF60916B0070916C0080916D0011
:1003300090916E000E942B049B01AC010E9433033C
:100340009B01AC0160E074E284E799E40E949703AA
:1003500020E030E040E05FE30E9432036B017C016B
:1003600080916A00813009F0ECC0C701B6010E949B
:10037000FF037E83C701B6010E94FF0309E721E75F
:10038000322E39E6232EE1E6EA83F9E4F9834BE7DE
:10039000442E53E7552E7BE6672EE3E67E2EFBE4E4
:1003A0008F2EADE7AA2EB5E7BB2E1DE6C12E85E642
:1003B000D82E9DE4E92E1FE787E78D83AFE6AC8357
:1003C00077E65FE447E425E4F22E33E4932E91E0F0
:1003D00021E430E03BCF8B81806E8B83809168007D
:1003E000823009F4A2C0F0F1833031F0843009F09A
:1003F000A3C0AB81A460AB83FD81EC81242F8091ED
:1004000069008330E1F1843030F5813009F4E7C0D0
:10041000823009F4272F3BB920BDBB81BAB9EE81E8
:10042000E0BD69B926960FB6F894DEBF0FBECDBF0A
:10043000DF91CF911F910F91FF90EF90DF90CF90C0
:10044000BF90AF909F908F907F906F905F904F90F4
:100450003F902F900895843009F4C3C08530D9F6B9
:10046000212FD9CF813009F067C0142DF52DE62D4D
:10047000772D582D292D80916900833021F62E2F5C
:10048000CACF60916B0070916C0080916D0090916B
:100490006E000E942B0420E030E040E851E40E940E
:1004A000B9049B01AC0160E074E284E799E40E9426
:1004B000970320E030E040E05FE30E9432036B01ED
:1004C0007C010E94FF037E83C701B6010E94FF03E7
:1004D00008E310E3312E88E2282EA0E2AA83B8E0D8
:1004E000B9839AE3492E22E3522E3AE2632E42E286
:1004F000742E5AE0852E7CE3A72EE4E3BE2EFCE2A8
:10050000CF2EA4E2DA2EBCE0EB2E1EE3E6E3ED8371
:10051000FEE2FC8376E25EE046E084E0F82E92E0C4
:10052000992E91E020E030E091CE1A2DFB2DEC2D9C
:100530007D2D5E2D2F2D63CF102FF1017A815981F2
:100540005ECFC701B6010E94FF037E83C701B601DB
:100550000E94FF0308E740E7342E58E6252EF0E618
:10056000FA8388E489837AE7472EE2E75E2EFAE68B
:100570006F2EA2E67A2EBAE48B2E1CE7A12E84E71A
:10058000B82E9CE6C92E24E6D22E3CE4E32E1EE7CC
:10059000A6E7AD83BEE6BC8376E65EE446E4E4E42B
:1005A000FE2EF2E49F2E91E020E430E04FCEEB816E
:1005B000E06AEB8313CFFB81F066FB830FCFBB8137
:1005C000B06CBB830BCFAB81A062AB8307CF8B81B9
:1005D00080648B8303CFFB81F068FB83FFCE252FE4
:1005E0001ACF2F2F18CF5D9BFECF209168002430AB
:1005F00039F44AB14E7F9C0122273170432B4AB90E
:100600008CB9089580E48DB9BC98BD98BE9ABF9806
:1006100008951FB8779BFECF8FB1089523E02093F4
:10062000640080E895E2A0E0B0E080936B009093D6
:100630006C00A0936D00B0936E0081E08093650024
:100640001092690020936800109266001092670073
:100650000E94CB000E9402030E94090390E00E94C6
:10066000F302FACF5058BB27AA270ED048C139D180
:1006700030F03ED120F031F49F3F11F41EF42EC132
:100680000EF4E095E7FB24C1E92F4AD180F3BA17B5
:10069000620773078407950718F071F49EF562C12D
:1006A0000EF4E0950B2EBA2FA02D0B01B90190018D
:1006B0000C01CA01A0011124FF27591B99F0593FD1
:1006C00050F4503E68F11A16F040A22F232F342F19
:1006D0004427585FF3CF469537952795A795F04067
:1006E0005395C9F77EF41F16BA0B620B730B840B7C
:1006F000BAF09150A1F0FF0FBB1F661F771F881F34
:10070000C2F70EC0BA0F621F731F841F48F487958B
:1007100077956795B795F7959E3F08F0B3CF93957A
:10072000880F08F09927EE0F9795879508950CD0BC
:10073000E6C0DED040F0D5D030F021F45F3F19F0B4
:10074000C7C0511110C1CAC0EBD098F39923C9F3A7
:100750005523B1F3951B550BBB27AA2762177307C7
:10076000840738F09F5F5F4F220F331F441FAA1F7B
:10077000A9F333D00E2E3AF0E0E830D0915050403B
:10078000E695001CCAF729D0FE2F27D0660F771FE9
:10079000881FBB1F261737074807AB07B0E809F0CB
:1007A000BB0B802DBF01FF2793585F4F2AF09E3F60
:1007B000510568F08DC0D7C05F3FECF3983EDCF385
:1007C000869577956795B795F7959F5FC9F7880FD9
:1007D000911D9695879597F90895E1E0660F771F2B
:1007E000881FBB1F621773078407BA0720F0621BBC
:1007F000730B840BBA0BEE1F88F7E095089598D021
:1008000088F09F5790F0B92F9927B751A0F0D1F0F9
:10081000660F771F881F991F1AF0BA95C9F712C083
:10082000B13081F09FD0B1E008959CC0672F782F40
:100830008827B85F39F0B93FCCF3869577956795EF
:10084000B395D9F73EF490958095709561957F4F5B
:100850008F4F9F4F0895E89409C097FB3EF4909501
:100860008095709561957F4F8F4F9F4F9923A9F089
:10087000F92F96E9BB279395F69587957795679518
:10088000B795F111F8CFFAF4BB0F11F460FF1BC05C
:100890006F5F7F4F8F4F9F4F16C0882311F096E9EF
:1008A00011C0772321F09EE8872F762F05C066239D
:1008B00071F096E8862F70E060E02AF09A95660F56
:1008C000771F881FDAF7880F9695879597F908950F
:1008D00097F99F6780E870E060E008959FEF80ECF3
:1008E000089500240A941616170618060906089596
:1008F00000240A9412161306140605060895092EFC
:100900000394000C11F4882352F0BB0F40F4BF2B6A
:1009100011F460FF04C06F5F7F4F8F4F9F4F0895AA
:1009200057FD9058440F551F59F05F3F71F04795A0
:10093000880F97FB991F61F09F3F79F08795089585
:10094000121613061406551FF2CF4695F1DF08C0A4
:10095000161617061806991FF1CF869571056105C1
:1009600008940895E894BB2766277727CB0197F969
:1009700008950BD0C4CFB5DF28F0BADF18F0952367
:1009800009F0A6CFABCF1124EECFCADFA0F3959F1D
:10099000D1F3950F50E0551F629FF001729FBB2766
:1009A000F00DB11D639FAA27F00DB11DAA1F649F12
:1009B0006627B00DA11D661F829F2227B00DA11DC5
:1009C000621F739FB00DA11D621F839FA00D611D4B
:1009D000221F749F3327A00D611D231F849F600D6C
:1009E000211D822F762F6A2F11249F5750408AF0A5
:1009F000E1F088234AF0EE0FFF1FBB1F661F771F31
:100A0000881F91505040A9F79E3F510570F060CF6C
:100A1000AACF5F3FECF3983EDCF386957795679518
:100A2000B795F795E7959F5FC1F7FE2B880F911D4E
:100A30009695879597F90895EE0FFF1F0590F4910D
:080A4000E02D0994F894FFCFAA
:040A4800081018007A
:00000001FF
