S01300005350495F424472697665722E7372656318
S11300000C942A000C943C000C943C000C943C008E
S11300100C943C000C943C000C943C000C943C006C
S11300200C943C000C943C000C943C000C943C005C
S11300300C943C000C943E000C9490000C946700CB
S11300400C943C000C943C000C943C000C943C003C
S11300500C943C0011241FBECFE5D8E0DEBFCDBF19
S113006020E0A0E6B0E001C01D92A237B207E1F79C
S11300700E94B9000C94BA000C9400001F920F92D5
S11300800FB60F9211242F933F934F935F936F9367
S11300907F938F939F93AF93BF93EF93FF93E091DD
S11300A06C00F0916D00309709F00995FF91EF9184
S11300B0BF91AF919F918F917F916F915F914F917C
S11300C03F912F910F900FBE0F901F9018951F9284
S11300D00F920FB60F9211242F933F934F935F9378
S11300E06F937F938F939F93AF93BF93EF93FF93FC
S11300F0E0916E00F0916F00309709F00995FF913F
S1130100EF91BF91AF919F918F917F916F915F918B
S11301104F913F912F910F900FBE0F901F90189504
S11301201F920F920FB60F9211242F933F934F9368
S11301305F936F937F938F939F93AF93BF93EF934B
S1130140FF93E0917000F0917100309709F00995E8
S1130150FF91EF91BF91AF919F918F917F916F919B
S11301605F914F913F912F910F900FBE0F901F9071
S10B01701895FFCFF894FFCFAE
S9030000FC
