S01B0000436F6E666967757261626C655F4472697665722E737265636D
S11300000C9431000C944E000C944E000C944E0051
S11300100C944E000C944E000C944E000C944E0024
S11300200C944E000C944E000C944E000C944E0014
S11300300C9422010C94A7010C94F9010C94D001A6
S11300400C944E000C944E000C944E000C944E00F4
S11300500C944E00C302C502C702C902CB02CD02F2
S1130060CF0211241FBECFE5D8E0DEBFCDBF11E023
S1130070A0E6B0E0E6E8FAE002C005900D92A835EB
S1130080B107D9F721E0A8E5B1E001C01D92A3377B
S1130090B207E1F70E94DD000C9441050C940000C6
S11300A083E08093610191E0909362011092630177
S11300B010926401809365011092660180E895E2D4
S11300C0A0E0B0E08093680190936901A0936A0175
S11300D0B0936B010E9422020E94E2000895CF9324
S11300E0DF9380E690E00E9441038DE090E00E945F
S11300F010030E942003EC018DE090E00E941003A5
S1130100CE0199278735910561F024F48235910554
S113011051F148C08237910531F18737910509F0D3
S113012041C087EA90E00E9441030E942003D82F37
S11301308DE290E00E9410030E942003C82F8DE0FE
S113014090E00E941003D0536D2F70E080ED8C0F6F
S11301500E94F60083EE90E00E9441038DE090E05F
S11301600E94100327C08CEF90E00E9441030E947C
S11301702003C82F8DE090E00E94100380ED8C0FC7
S113018090E00E941301C82F8FE191E00E94410387
S113019080E38C0F90E00E9410038DE090E00E94B9
S11301A0100308C087E391E00E9441038DE090E0D2
S11301B00E941003DF91CF9108950E9450000E9485
S11301C06F00FDCF81E0809358018093590183E053
S11301D080935A0110925B0182E080935F01109238
S11301E05C01B89AC09A0E944B010895CF93DF93A3
S11301F0C82FD62FC09886E00E949D01C09A83ED37
S113020090E30197F1F700C00000C09882E00E94DB
S11302109D018D2F0E949D018C2F0E949D01C09AEB
S1130220DF91CF910895CF93C82FC09883E00E94A7
S11302309D018C2F0E949D0180E00E949D01C09A27
S1130240CF9108951F920F920FB60F9211242F93FE
S11302503F934F935F936F937F938F939F93AF934A
S1130260BF93EF93FF93E0915D01F0915E013097AE
S113027009F00995FF91EF91BF91AF919F918F91F3
S11302807F916F915F914F913F912F910F900FBE8E
S11302900F901F9018951DB81EB880915801813099
S11302A009F04AC080915901882351F0813049F402
S11302B06C9A87B3806B87BB88B3806388BB01C0AB
S11302C0BE9A80915B01813009F46D9A80915C0142
S11302D0813009F46F9A80915A01823031F0833071
S11302E039F0813049F46A9A07C06B9AC79A04C0FE
S11302F08DB18C608DB9C79A80915F01833089F08C
S113030028F4882349F0823049F015C0853071F013
S113031050F0863069F00FC0709A0DC0709A689AD8
S11303200AC0689A08C0709A699A05C0699A03C09D
S11303308DB183608DB96E9A08958FB9769B03C091
S113034081E080936001779BFECF8FB108951F9267
S11303500F920FB60F9211242F933F934F935F93F5
S11303606F937F938F939F93AF93BF93EF93FF9379
S1130370E0916D01F0916E01309709F00995FF91BC
S1130380EF91BF91AF919F918F917F916F915F9109
S11303904F913F912F910F900FBE0F901F90189582
S11303A01F920F920FB60F9211242F933F934F93E6
S11303B05F936F937F938F939F93AF93BF93EF93C9
S11303C0FF93E0916F01F0917001309709F0099566
S11303D0FF91EF91BF91AF919F918F917F916F9119
S11303E05F914F913F912F910F900FBE0F901F90EF
S11303F018951F920F920FB60F9211242F933F93CB
S11304004F935F936F937F938F939F93AF93BF9318
S1130410EF93FF93E0917101F0917201309709F02D
S11304200995FF91EF91BF91AF919F918F917F912A
S11304306F915F914F913F912F910F900FBE0F904D
S11304401F901895CF92DF92EF92FF92CF938091F5
S11304506101823051F0833031F0813011F0C0E01D
S113046005C0C8E003C0C8E101C0C0E180916201D9
S1130470813041F120F0823009F447C06BC06091B3
S113048068017091690180916A0190916B010E94E9
S11304904A0420E030E040E851E40E94D8049B0183
S11304A0AC0160E074E284E799E40E94B60320E0C2
S11304B030E040E05FE30E9451036B017C0120E0E7
S11304C030E050C0609168017091690180916A01C7
S11304D090916B010E944A0420E030E040E051E436
S11304E00E94D8049B01AC0160E074E284E799E4C3
S11304F00E94B60320E030E040E05FE30E94510335
S11305006B017C0120E032E02DC0609168017091A4
S1130510690180916A0190916B010E944A049B01D8
S1130520AC010E9452039B01AC0160E074E284E7D9
S113053099E40E94B60320E030E040E05FE30E94CB
S113054051036B017C0180916701813049F020E403
S113055030E008C0C12CD12C760120E030E002C08C
S113056021E430E080916301813009F431608091AD
S1130570640190E0FC013197E730F10588F4E65D11
S1130580FF4F0C943B05C0680BC0C06409C0C06237
S113059007C0C06C05C0C06A03C0C06601C0C06E9D
S11305A080916501823059F018F4813031F00DC02A
S11305B0833039F0843039F008C0226006C02460EA
S11305C004C0266002C02660C46080916601833046
S11305D079F028F4813041F0823041F00EC084304B
S11305E049F0853049F009C0286007C0206205C081
S11305F0286203C0206301C028633BB920BDCAB987
S1130600C701B6010E941E0470BDC701B6010E9455
S11306101E0469B9CF91FF90EF90DF90CF900895B9
S11306205D9BFECF20916501243041F44AB14E7F99
S11306309C0122273170242F232B2AB98CB90895C9
S11306405F9BFECF8BB18C7179F05C9B04C083E01F
S113065080936C0109C05B9B04C082E080936C01B1
S113066003C081E080936C0180916501843021F4A2
S11306708AB180E090E002C080E090E02CB1822B4F
S11306800895CF93DF93EC018881882339F0219674
S113069090E00E94100389918111FACFDF91CF91EC
S11306A008955058BB27AA270ED048C139D130F03D
S11306B03ED120F031F49F3F11F41EF42EC10EF40C
S11306C0E095E7FB24C1E92F4AD180F3BA1762070A
S11306D073078407950718F071F49EF562C10EF450
S11306E0E0950B2EBA2FA02D0B01B90190010C013E
S11306F0CA01A0011124FF27591B99F0593F50F456
S1130700503E68F11A16F040A22F232F342F4427AD
S1130710585FF3CF469537952795A795F0405395A5
S1130720C9F77EF41F16BA0B620B730B840BBAF075
S11307309150A1F0FF0FBB1F661F771F881FC2F7E0
S11307400EC0BA0F621F731F841F48F487957795F4
S11307506795B795F7959E3F08F0B3CF9395880FAB
S113076008F09927EE0F9795879508950CD0E6C069
S1130770DED040F0D5D030F021F45F3F19F0C7C08F
S1130780511110C1CAC0EBD098F39923C9F3552372
S1130790B1F3951B550BBB27AA2762177307840770
S11307A038F09F5F5F4F220F331F441FAA1FA9F326
S11307B033D00E2E3AF0E0E830D091505040E69518
S11307C0001CCAF729D0FE2F27D0660F771F881F79
S11307D0BB1F261737074807AB07B0E809F0BB0B68
S11307E0802DBF01FF2793585F4F2AF09E3F51058C
S11307F068F08DC0D7C05F3FECF3983EDCF386957C
S113080077956795B795F7959F5FC9F7880F911D01
S11308109695879597F90895E1E0660F771F881FED
S1130820BB1F621773078407BA0720F0621B730BA0
S1130830840BBA0BEE1F88F7E095089598D088F0E2
S11308409F5790F0B92F9927B751A0F0D1F0660FB8
S1130850771F881F991F1AF0BA95C9F712C0B130D3
S113086081F09FD0B1E008959CC0672F782F88272E
S1130870B85F39F0B93FCCF3869577956795B39512
S1130880D9F73EF490958095709561957F4F8F4F81
S11308909F4F0895E89409C097FB3EF49095809586
S11308A0709561957F4F8F4F9F4F9923A9F0F92F32
S11308B096E9BB279395F695879577956795B795B0
S11308C0F111F8CFFAF4BB0F11F460FF1BC06F5F96
S11308D07F4F8F4F9F4F16C0882311F096E911C0A8
S11308E0772321F09EE8872F762F05C0662371F0C9
S11308F096E8862F70E060E02AF09A95660F771FDD
S1130900881FDAF7880F9695879597F9089597F9D0
S11309109F6780E870E060E008959FEF80EC0895A1
S113092000240A94161617061806090608950024CA
S11309300A9412161306140605060895092E039444
S1130940000C11F4882352F0BB0F40F4BF2B11F4B8
S113095060FF04C06F5F7F4F8F4F9F4F089557FD17
S11309609058440F551F59F05F3F71F04795880F19
S113097097FB991F61F09F3F79F0879508951216B0
S113098013061406551FF2CF4695F1DF08C016165C
S113099017061806991FF1CF86957105610508940D
S11309A00895E894BB2766277727CB0197F9089524
S11309B00BD0C4CFB5DF28F0BADF18F0952309F0C7
S11309C0A6CFABCF1124EECFCADFA0F3959FD1F30E
S11309D0950F50E0551F629FF001729FBB27F00DE9
S11309E0B11D639FAA27F00DB11DAA1F649F66273E
S11309F0B00DA11D661F829F2227B00DA11D621F8D
S1130A00739FB00DA11D621F839FA00D611D221F46
S1130A10749F3327A00D611D231F849F600D211D2A
S1130A20822F762F6A2F11249F5750408AF0E1F0CD
S1130A3088234AF0EE0FFF1FBB1F661F771F881F16
S1130A4091505040A9F79E3F510570F060CFAACF56
S1130A505F3FECF3983EDCF3869577956795B79501
S1130A60F795E7959F5FC1F7FE2B880F911D96952B
S1130A70879597F90895EE0FFF1F0590F491E02DE7
S1090A800994F894FFCF75
S1130A86506C6561736520456E74657220572074D9
S1130A966F205772697465204461746120746F20F5
S1130AA6454550524F4D206F72205220746F20528C
S1130AB665616420446174612046726F6D2045450A
S1130AC650524F4D3A2000506C6561736520507248
S1130AD66F766964652041646472657373205B3064
S1130AE6202D203132375D20466F6C6C6F7765643C
S1130AF620427920446174615B302D3235355D20A6
S1130B063A20005772697465204F70657261746982
S1130B166F6E20446F6E65203A3A2000506C656112
S1130B2673652050726F76696465204164647265EA
S1130B367373205B30202D203132375D3A2000411B
S1130B466464726573732068617320446174612000
S1130B566F66203A20200057726F6E6720496E70C8
S1130B66757420506C6561736520547279204167F1
S10B0B7661696E203A3A0000A7
S9030000FC
