S01300005350495F424472697665722E7372656318
S11300000C9431000C9443000C9443000C94430072
S11300100C9443000C9443000C9443000C94430050
S11300200C9443000C9443000C9443000C94430040
S11300300C9443000C9445000C9497000C946E00AF
S11300400C9443000C9443000C9443000C94430020
S11300500C944300610163016501670169016B014F
S11300606D0111241FBECFE5D8E0DEBFCDBF20E077
S1130070A0E6B0E001C01D92A237B207E1F70E94EA
S1130080D9010C94EC030C9400001F920F920FB64C
S11300900F9211242F933F934F935F936F937F930A
S11300A08F939F93AF93BF93EF93FF93E0916C0073
S11300B0F0916D00309709F00995FF91EF91BF9190
S11300C0AF919F918F917F916F915F914F913F91EC
S11300D02F910F900FBE0F901F9018951F920F92A3
S11300E00FB60F9211242F933F934F935F936F9307
S11300F07F938F939F93AF93BF93EF93FF93E0917D
S11301006E00F0916F00309709F00995FF91EF911F
S1130110BF91AF919F918F917F916F915F914F911B
S11301203F912F910F900FBE0F901F9018951F9223
S11301300F920FB60F9211242F933F934F935F9317
S11301406F937F938F939F93AF93BF93EF93FF939B
S1130150E0917000F0917100309709F00995FF91DA
S1130160EF91BF91AF919F918F917F916F915F912B
S11301704F913F912F910F900FBE0F901F901895A4
S1130180CF92DF92EF92FF92CF9380916000823002
S113019051F0833031F0813011F0C0E005C0C8E087
S11301A003C0C8E101C0C0E180916100813041F128
S11301B020F0823009F447C06BC0609167007091F1
S11301C068008091690090916A000E94F50220E025
S11301D030E040E851E40E9483039B01AC0160E0FD
S11301E074E284E799E40E94610220E030E040E098
S11301F05FE30E94FC016B017C0120E030E050C011
S113020060916700709168008091690090916A0024
S11302100E94F50220E030E040E051E40E948303B4
S11302209B01AC0160E074E284E799E40E946102FE
S113023020E030E040E05FE30E94FC016B017C01C0
S113024020E032E02DC060916700709168008091D9
S1130250690090916A000E94F5029B01AC010E9422
S1130260FD019B01AC0160E074E284E799E40E9423
S1130270610220E030E040E05FE30E94FC016B019A
S11302807C0180916600813049F020E430E008C0B0
S1130290C12CD12C760120E030E002C021E430E012
S11302A080916200813009F431608091630090E0B4
S11302B0FC013197E730F10588F4E65DFF4F0C94BB
S11302C0E603C0680BC0C06409C0C06207C0C06C4C
S11302D005C0C06A03C0C06601C0C06E80916400DE
S11302E0823059F018F4813031F00DC0833039F088
S11302F0843039F008C0226006C0246004C026603F
S113030002C02660C46080916500833079F028F4CF
S1130310813041F0823041F00EC0843049F08530A4
S113032049F009C0286007C0206205C0286203C0E4
S1130330206301C028633BB920BDCAB9C701B60117
S11303400E94C90270BDC701B6010E94C90269B901
S1130350CF91FF90EF90DF90CF9008955F9BFECFF9
S11303608BB18C7179F05C9B04C083E080936B004B
S113037009C05B9B04C082E080936B0003C081E0F2
S113038080936B0080916400843021F48AB180E012
S113039090E002C080E090E02CB1822B089580E5CB
S11303A08DB987B3806B87BB08958FB9779BFECFD8
S11303B0089523E02093600080E895E2A0E0B0E097
S11303C08093670090936800A0936900B0936A00DB
S11303D081E0809361001092650020936400109284
S11303E06200109263000E94C0000E94CF010E942C
S11303F0AE010E94D501FBCF5058BB27AA270ED0CF
S113040048C139D130F03ED120F031F49F3F11F48E
S11304101EF42EC10EF4E095E7FB24C1E92F4AD166
S113042080F3BA17620773078407950718F071F40D
S11304309EF562C10EF4E0950B2EBA2FA02D0B0190
S1130440B90190010C01CA01A0011124FF27591B15
S113045099F0593F50F4503E68F11A16F040A22F1B
S1130460232F342F4427585FF3CF4695379527958C
S1130470A795F0405395C9F77EF41F16BA0B620B8B
S1130480730B840BBAF09150A1F0FF0FBB1F661FD2
S1130490771F881FC2F70EC0BA0F621F731F841F15
S11304A048F4879577956795B795F7959E3F08F03B
S11304B0B3CF9395880F08F09927EE0F97958795FA
S11304C008950CD0E6C0DED040F0D5D030F021F451
S11304D05F3F19F0C7C0511110C1CAC0EBD098F3E7
S11304E09923C9F35523B1F3951B550BBB27AA27B1
S11304F062177307840738F09F5F5F4F220F331F23
S1130500441FAA1FA9F333D00E2E3AF0E0E830D0EE
S113051091505040E695001CCAF729D0FE2F27D0F1
S1130520660F771F881FBB1F261737074807AB07BF
S1130530B0E809F0BB0B802DBF01FF2793585F4F34
S11305402AF09E3F510568F08DC0D7C05F3FECF3A1
S1130550983EDCF3869577956795B795F7959F5FF9
S1130560C9F7880F911D9695879597F90895E1E04D
S1130570660F771F881FBB1F621773078407BA07AC
S113058020F0621B730B840BBA0BEE1F88F7E09507
S1130590089598D088F09F5790F0B92F9927B751B4
S11305A0A0F0D1F0660F771F881F991F1AF0BA9533
S11305B0C9F712C0B13081F09FD0B1E008959CC05A
S11305C0672F782F8827B85F39F0B93FCCF3869529
S11305D077956795B395D9F73EF490958095709586
S11305E061957F4F8F4F9F4F0895E89409C097FB03
S11305F03EF490958095709561957F4F8F4F9F4FF6
S11306009923A9F0F92F96E9BB279395F695879539
S113061077956795B795F111F8CFFAF4BB0F11F4FC
S113062060FF1BC06F5F7F4F8F4F9F4F16C08823A3
S113063011F096E911C0772321F09EE8872F762FD9
S113064005C0662371F096E8862F70E060E02AF01A
S11306509A95660F771F881FDAF7880F9695879506
S113066097F9089597F99F6780E870E060E008952E
S11306709FEF80EC089500240A94161617061806B6
S11306800906089500240A94121613061406050692
S11306900895092E0394000C11F4882352F0BB0F23
S11306A040F4BF2B11F460FF04C06F5F7F4F8F4F86
S11306B09F4F089557FD9058440F551F59F05F3FC1
S11306C071F04795880F97FB991F61F09F3F79F070
S11306D087950895121613061406551FF2CF4695F2
S11306E0F1DF08C0161617061806991FF1CF869574
S11306F07105610508940895E894BB276627772758
S1130700CB0197F908950BD0C4CFB5DF28F0BADF39
S113071018F0952309F0A6CFABCF1124EECFCADF92
S1130720A0F3959FD1F3950F50E0551F629FF00100
S1130730729FBB27F00DB11D639FAA27F00DB11D59
S1130740AA1F649F6627B00DA11D661F829F2227E2
S1130750B00DA11D621F739FB00DA11D621F839F69
S1130760A00D611D221F749F3327A00D611D231F3F
S1130770849F600D211D822F762F6A2F11249F578D
S113078050408AF0E1F088234AF0EE0FFF1FBB1FB0
S1130790661F771F881F91505040A9F79E3F51054F
S11307A070F060CFAACF5F3FECF3983EDCF3869500
S11307B077956795B795F795E7959F5FC1F7FE2BFA
S11307C0880F911D9695879597F90895EE0FFF1F51
S10F07D00590F491E02D0994F894FFCFFB
S9030000FC
