:100000000C9431000C944E000C944E000C944E0055
:100010000C944E000C944E000C944E000C944E0028
:100020000C944E000C944E000C944E000C944E0018
:100030000C944E000C9416010C9468010C943F0132
:100040000C944E000C944E000C944E000C944E00F8
:100050000C944E0032023402360238023A023C025C
:100060003E0211241FBECFE5D8E0DEBFCDBF10E0B9
:10007000A0E6B0E0E4E4F9E002C005900D92AA36F3
:10008000B107D9F720E0AAE6B0E001C01D92AC3775
:10009000B207E1F70E948F020C94A0040C940000B8
:1000A000CF92DF92EF92FF920F931F93CF93DF9344
:1000B00001E010E0C0E0D0E00F2EF7E6EF2EF0E018
:1000C000FF2EF02D0F2EF8E6CF2EF0E0DF2EF02DD4
:1000D00002C01F5F0F5F8EEF800F863040F4E12F6C
:1000E000F0E0E05AFF4F8081C80FD11D13C01730D8
:1000F00089F4882799278C1B9D0BF7019083F601C3
:100100008083E12FF0E0E05AFF4F808190E00E9471
:100110007F02DFCFE12FF0E0E05AFF4F808190E0D7
:100120000E947F020A30A8F2DF91CF911F910F91B8
:10013000FF90EF90DF90CF900895CF93DF9380E80A
:1001400095E2A0E0B0E08093710090937200A093DC
:100150007300B093740081E080936A0080936B0019
:1001600010926C0010926F0083E080936E001092EA
:100170006D000E949101C3E6D0E08CE088830E946C
:10018000500018822FE38DE093E021508040904092
:10019000E1F700C00000DF91CF910895EF92FF9248
:1001A0000F931F93CF93DF930F2EF3E6EF2EF0E024
:1001B000FF2EF02D23E0F701208305E610E0F80183
:1001C0009083C6E6D0E088830E945000F701108239
:1001D000F80110821882DF91CF911F910F91FF904B
:1001E000EF900895EF92FF920F931F93CF93DF93B9
:1001F0000F2EF3E6EF2EF0E0FF2EF02D26E0F701B4
:10020000208305E610E0F8019083C6E6D0E08883FD
:100210000E945000F7011082F80110821882DF91CD
:10022000CF911F910F91FF90EF9008951F920F9221
:100230000FB60F9211242F933F934F935F936F93B9
:100240007F938F939F93AF93BF93EF93FF93E0912F
:100250007600F0917700309709F00995FF91EF91C2
:10026000BF91AF919F918F917F916F915F914F91CE
:100270003F912F910F900FBE0F901F9018951F92D6
:100280000F920FB60F9211242F933F934F935F93CA
:100290006F937F938F939F93AF93BF93EF93FF934E
:1002A000E0917800F0917900309709F00995FF917D
:1002B000EF91BF91AF919F918F917F916F915F91DE
:1002C0004F913F912F910F900FBE0F901F90189557
:1002D0001F920F920FB60F9211242F933F934F93BB
:1002E0005F936F937F938F939F93AF93BF93EF939E
:1002F000FF93E0917A00F0917B00309709F0099527
:10030000FF91EF91BF91AF919F918F917F916F91ED
:100310005F914F913F912F910F900FBE0F901F90C3
:100320001895CF92DF92EF92FF92CF9380916A005F
:10033000823051F0833031F0813011F0C0E005C0DF
:10034000C8E003C0C8E101C0C0E180916B0081300A
:1003500041F120F0823009F447C06BC06091710018
:100360007091720080917300909174000E94A903B3
:1003700020E030E040E851E40E9437049B01AC01EA
:1003800060E074E284E799E40E94150320E030E025
:1003900040E05FE30E94B0026B017C0120E030E0AE
:1003A00050C06091710070917200809173009091C3
:1003B00074000E94A90320E030E040E051E40E9474
:1003C00037049B01AC0160E074E284E799E40E9489
:1003D000150320E030E040E05FE30E94B0026B01D3
:1003E0007C0120E032E02DC06091710070917200BC
:1003F00080917300909174000E94A9039B01AC014D
:100400000E94B1029B01AC0160E074E284E799E4D0
:100410000E94150320E030E040E05FE30E94B0025C
:100420006B017C0180917000813049F020E430E064
:1004300008C0C12CD12C760120E030E002C021E4BC
:1004400030E080916C00813009F4316080916D0062
:1004500090E0FC013197E730F10588F4E65DFF4F4D
:100460000C949A04C0680BC0C06409C0C06207C085
:10047000C06C05C0C06A03C0C06601C0C06E809178
:100480006E00823059F018F4813031F00DC08330A5
:1004900039F0843039F008C0226006C0246004C0FE
:1004A000266002C02660C46080916F00833079F0BE
:1004B00028F4813041F0823041F00EC0843049F0A0
:1004C000853049F009C0286007C0206205C0286255
:1004D00003C0206301C028633BB920BDCAB9C7016E
:1004E000B6010E947D0370BDC701B6010E947D0365
:1004F00069B9CF91FF90EF90DF90CF9008955D9B09
:10050000FECF20916E00243041F44AB14E7F9C0111
:1005100022273170242F232B2AB98CB908950E94E9
:100520009D008EE190E00E94F2002FE986E891E0C4
:10053000215080409040E1F700C0000082E090E050
:100540000E94CE002FE784E89EE121508040904039
:10055000E1F700C0000084E090E00E94CE00FFCFF1
:100560005058BB27AA270ED048C139D130F03ED110
:1005700020F031F49F3F11F41EF42EC10EF4E095EB
:10058000E7FB24C1E92F4AD180F3BA17620773074A
:100590008407950718F071F49EF562C10EF4E0959A
:1005A0000B2EBA2FA02D0B01B90190010C01CA012D
:1005B000A0011124FF27591B99F0593F50F4503ED8
:1005C00068F11A16F040A22F232F342F4427585FCA
:1005D000F3CF469537952795A795F0405395C9F7E2
:1005E0007EF41F16BA0B620B730B840BBAF091509A
:1005F000A1F0FF0FBB1F661F771F881FC2F70EC039
:10060000BA0F621F731F841F48F48795779567950B
:10061000B795F7959E3F08F0B3CF9395880F08F0F4
:100620009927EE0F9795879508950CD0E6C0DED0F8
:1006300040F0D5D030F021F45F3F19F0C7C0511120
:1006400010C1CAC0EBD098F39923C9F35523B1F375
:10065000951B550BBB27AA2762177307840738F031
:100660009F5F5F4F220F331F441FAA1FA9F333D090
:100670000E2E3AF0E0E830D091505040E695001C44
:10068000CAF729D0FE2F27D0660F771F881FBB1F00
:10069000261737074807AB07B0E809F0BB0B802DDA
:1006A000BF01FF2793585F4F2AF09E3F510568F026
:1006B0008DC0D7C05F3FECF3983EDCF3869577950D
:1006C0006795B795F7959F5FC9F7880F911D969528
:1006D000879597F90895E1E0660F771F881FBB1F84
:1006E000621773078407BA0720F0621B730B840B31
:1006F000BA0BEE1F88F7E095089598D088F09F57C1
:1007000090F0B92F9927B751A0F0D1F0660F771F5D
:10071000881F991F1AF0BA95C9F712C0B13081F03D
:100720009FD0B1E008959CC0672F782F8827B85FCD
:1007300039F0B93FCCF3869577956795B395D9F79E
:100740003EF490958095709561957F4F8F4F9F4FA8
:100750000895E89409C097FB3EF4909580957095B4
:1007600061957F4F8F4F9F4F9923A9F0F92F96E9FD
:10077000BB279395F695879577956795B795F11172
:10078000F8CFFAF4BB0F11F460FF1BC06F5F7F4F0F
:100790008F4F9F4F16C0882311F096E911C0772321
:1007A00021F09EE8872F762F05C0662371F096E82A
:1007B000862F70E060E02AF09A95660F771F881FF9
:1007C000DAF7880F9695879597F9089597F99F67B7
:1007D00080E870E060E008959FEF80EC08950024C9
:1007E0000A941616170618060906089500240A9496
:1007F00012161306140605060895092E0394000C1C
:1008000011F4882352F0BB0F40F4BF2B11F460FFAA
:1008100004C06F5F7F4F8F4F9F4F089557FD9058D3
:10082000440F551F59F05F3F71F04795880F97FBB4
:10083000991F61F09F3F79F087950895121613066E
:100840001406551FF2CF4695F1DF08C0161617069D
:100850001806991FF1CF86957105610508940895D2
:10086000E894BB2766277727CB0197F908950BD02B
:10087000C4CFB5DF28F0BADF18F0952309F0A6CF72
:10088000ABCF1124EECFCADFA0F3959FD1F3950F24
:1008900050E0551F629FF001729FBB27F00DB11D04
:1008A000639FAA27F00DB11DAA1F649F6627B00D94
:1008B000A11D661F829F2227B00DA11D621F739F7D
:1008C000B00DA11D621F839FA00D611D221F749F8B
:1008D0003327A00D611D231F849F600D211D822FD2
:1008E000762F6A2F11249F5750408AF0E1F0882319
:1008F0004AF0EE0FFF1FBB1F661F771F881F915026
:100900005040A9F79E3F510570F060CFAACF5F3FDE
:10091000ECF3983EDCF3869577956795B795F79558
:10092000E7959F5FC1F7FE2B880F911D96958795E0
:1009300097F90895EE0FFF1F0590F491E02D0994AB
:04094000F894FFCF59
:0A0944007EFF06000000000000EF37
:00000001FF
